:020000040800F2
:10000000002000200D170008890400088B04000858
:1000100000000000000000000000000000000000E0
:100020000000000000000000000000008D04000837
:1000300000000000000000008F0400089104000888
:100040005D1700085D1700085D1700085D170008C0
:100050005D1700085D1700085D1700085D170008B0
:10006000000000005D1700085D1700085D1700081C
:100070005D1700085D170008000000005D1700080C
:100080000000000000000000000000000000000070
:100090005D170008000000005D1700085D170008EC
:1000A000000000005D1700080000000000000000D4
:1000B0005D1700085D170008000000000000000048
:1000C000002243088B4274D303098B425FD3030A97
:1000D0008B4244D3030B8B4228D3030C8B420DD3AA
:1000E000FF22090212BA030C8B4202D31212090238
:1000F00065D0030B8B4219D300E0090AC30B8B4276
:1001000001D3CB03C01A5241830B8B4201D38B0323
:10011000C01A5241430B8B4201D34B03C01A5241C8
:10012000030B8B4201D30B03C01A5241C30A8B420B
:1001300001D3CB02C01A5241830A8B4201D38B02F6
:10014000C01A5241430A8B4201D34B02C01A52419A
:10015000030A8B4201D30B02C01A5241CDD2C3090C
:100160008B4201D3CB01C01A524183098B4201D388
:100170008B01C01A524143098B4201D34B01C01A73
:10018000524103098B4201D30B01C01A5241C308EB
:100190008B4201D3CB00C01A524183088B4201D35A
:1001A0008B00C01A524143088B4201D34B00C01A46
:1001B0005241411A00D20146524110467047FFE7B2
:1001C00001B5002000F006F802BDC0460029F7D0B6
:1001D00076E770477047C046002B11D1002A0FD137
:1001E000002900D1002802D00021C943080007B42B
:1001F000024802A14018029003BDC046D9FFFFFF8C
:1002000003B4684601B5029801F004FB019B9E46C9
:1002100002B00CBC7047C04610B5002903D100F0F5
:1002200007F8203002E0080000F002F810BDC046D8
:100230001C2101231B04984201D3000C10391B0A16
:10024000984201D3000A08391B09984201D30009DA
:10025000043902A2105C40187047C0460403020231
:100260000101010100000000000000000448054BEE
:1002700010B5834203D0044B002B00D0984710BD2B
:100280000C0000200C000020000000000648074978
:10029000091A8B10C90FC91810B5491003D0044BA7
:1002A000002B00D0984710BD0C0000200C0000204F
:1002B0000000000010B5074C2378002B09D1FFF790
:1002C000D5FF054B002B02D0044800E000BF0123FE
:1002D000237010BD0C00002000000000AC190008C5
:1002E000054B10B5002B03D00449054800E000BFC2
:1002F000FFF7CCFF10BDC04600000000100000203A
:10030000AC19000830B589B01422002103A801F00F
:100310004BFA154BD96A04221143D962D96A0A40B3
:100320000092009ADA6A01242243DA62DA6A2240F1
:100330000192019AD96A02221143D962DB6A1A40FA
:100340000292029B094D00220821280001F082F947
:1003500008230393049400230593069303A928001C
:1003600001F0BAF809B030BD00100240000400509E
:1003700072B6FEE710B50B480B4B0360E1235B023E
:10038000436000238360C36003610C224261836188
:10039000C3610362436200F041FB002800D110BD3D
:1003A000FFF7E6FF280000200044004000B599B0A8
:1003B000342200210BA801F0F7F91422002106A82D
:1003C00001F0F2F918220021684601F0EDF91D490B
:1003D0000A681D4B1A4080231B0113430B60022344
:1003E0000B9301220E920F320F9214930023159358
:1003F0008023DB0216938023DB0317930BA800F006
:10040000FBFB002818D10F2306930C3B0793002316
:10041000089309930A93012106A800F07BFE0028A7
:100420000CD10223009300230293684600F084FF5E
:10043000002805D119B000BDFFF79AFFFFF798FF1C
:10044000FFF796FF00700040FFE7FFFF70B500F078
:1004500043FBFFF7ABFFFFF755FFFFF78BFFA0252F
:10046000ED0501222021280001F0F4F8FA24A4006F
:10047000200000F057FB00222021280001F0EAF8BC
:10048000200000F04FFBEAE7FEE7FEE77047704709
:1004900010B500F035FB10BD054B5A6B01210A4326
:1004A0005A63996B802252050A439A637047C0468B
:1004B0000010024010B586B004001422002101A8EB
:1004C00001F072F92268104B9A4201D006B010BDBB
:1004D0000E4B996B802292020A439A63D96A0122D9
:1004E0001143D962DB6A1A400092009B084B0193CA
:1004F000022302930133049301330593A02001A941
:10050000C00500F0E9FFE1E70044004000100240B0
:100510000480000010B5EFF3108C012282F31088E4
:1005200001680B68124C23400B608CF31088EFF3CA
:10053000108C82F3108801688B6893438B608CF376
:100540001088036E012B06D080232022C250002386
:100550000366836610BDEFF3108183F31088026891
:1005600013683234FF34A343136081F31088EBE740
:10057000DFFEFFFFD0B504008368026913434269C0
:100580001343C269134301680A6885480240134354
:100590000B602268536883490B40E1680B4353604A
:1005A000A1692268804B9A4201D0236A194393685B
:1005B0007E4803400B43936022687D4B9A4212D0E1
:1005C000794B9A4220D0102377498A4242D0E06981
:1005D00080221202904279D0082B00D9DAE09B00E9
:1005E000744AD3589F46744BD96C0C230B40082B8C
:1005F00022D005D8002B21D0042BE5D01023E3E72F
:100600000C2B1DD1043BDFE76B4BDB6CC0210901D8
:100610000B40802109018B4214D007D8002B13D046
:100620008021C9008B4211D10423CDE7C0210901EB
:100630008B420DD10823C7E70223C5E70023C3E798
:100640001023C1E70223BFE70023BDE71023BBE768
:100650001023B9E7042B34D00BD8002B10D0022B79
:1006600005D1554B1B68DB062ED454480DE0012004
:100670006DE0082B02D18020000206E0012066E038
:1006800000F03AFE002800D176E0626853009B1823
:10069000834200D972E01303834200D270E0070E58
:1006A000060250080021801979410023FFF794FDCC
:1006B000434BC218434B9A4264D82368D860002049
:1006C00045E000F041FADDE73F48DEE7082B5BD864
:1006D0009B003E4AD3589F4600F00EFE002855D09E
:1006E000400061684B08C018FFF7EAFC0200103AAE
:1006F000374B9A424CD882B20F239A434008083BAA
:10070000034013432268D360002020E000F004FE81
:10071000E4E7294B1B68DB0604D42848E0E700F037
:1007200013FADBE72848DBE700F0E6FD002833D0CA
:1007300061684B081818FFF7C3FC0200103A244BFD
:100740009A422BD823680004000CD86000200023B4
:10075000A366E366D0BD00F0DFFDE7E7164B1B683C
:10076000DB0607D41548E3E700F0EEF9DEE780206A
:100770000002DDE71448DBE70020E8E70120E6E7B8
:100780000120E4E70120E2E70120E0E70020DEE7C6
:100790000120DCE70120DAE70020D8E70120D6E7D6
:1007A000F369FFEFFFCFFFFF00480040FFF4FFFFBA
:1007B00000440040C4190008001002400024F40066
:1007C00000FDFFFFFFFC0F0000093D00E8190008D5
:1007D000EFFF0000436ADB0706D5026853682C4927
:1007E0000B40816A0B435360436A9B0706D502683E
:1007F000536828490B40C16A0B435360436A5B0747
:1008000006D50268536824490B40016B0B435360C3
:10081000436A1B0706D50268536820490B40416BA9
:100820000B435360436ADB0606D5026893681C4994
:100830000B40816B0B439360436A9B0606D50268AD
:10084000936818490B40C16B0B439360436A5B0686
:100850000BD50268536814490B40016C0B4353607D
:10086000026C80235B039A420AD0436A1B0606D5BA
:10087000026853680D490B40816C0B43536070470D
:10088000026853680A490B40416C0B435360ECE724
:10089000FFFFFDFFFFFFFEFFFFFFFBFFFF7FFFFFEF
:1008A000FFEFFFFFFFDFFFFFFFFFEFFFFFFFF7FFA0
:1008B000FFFF9FFFF8B5CE46474680B506000D0006
:1008C00017009946089B98463368DC692C40641BE6
:1008D00063425C41BC422FD143460133F4D000F067
:1008E0001BF94B46C01A40452BD84346002B2AD053
:1008F00033681A685207E7D5DA69120710D4DA6943
:100900001205E1D5802212011A623000FFF702FEC3
:1009100084232022F2500C3B0022F25403200CE0EE
:1009200008241C623000FFF7F5FD8423F4500C3BD3
:100930000022F254012000E00020C0BCB946B046BD
:10094000F8BD0320F9E70320F7E7000030B583B0D6
:10095000040084230022C25000F0DEF80500236862
:100960001B681B070FD423681B685B0729D420234F
:10097000E3678022A350002323666366083AA354EA
:10098000002003B030BD8021224B009303000022E1
:1009900089032000FFF78EFF0028E4D0EFF31081D9
:1009A000012383F310882268136880208343136037
:1009B00081F310882023E36758330022E2547D3806
:1009C000DFE78021134B00932B000022C903200096
:1009D000FFF770FF0028CAD0EFF31080012282F3E6
:1009E000108821680B680C4D2B400B6080F3108839
:1009F000EFF3108082F3108821688B6893438B603B
:100A000080F3108880231F32E250083B0022E2541A
:100A10000320B6E7FFFFFF01DFFEFFFF10B5041E56
:100A20002ED0C36F002B21D02423E36722681368E4
:100A300001218B4313602000FFF79CFD012814D097
:100A4000636A002B18D1226853680E490B4053602B
:100A5000226893682A218B4393602268136829399E
:100A60000B4313602000FFF771FF10BD78330022A5
:100A7000C254FFF71FFDD7E72000FFF7ABFEE2E708
:100A80000120F2E7FFB7FFFF10B504000F4B197804
:100A9000FA208000FFF714FB01000D4B1868FFF7E8
:100AA0000FFB00F02DFE00280DD1032C01D90120F1
:100AB0000AE0013000222100404200F01DFE054BFB
:100AC0001C60002000E0012010BDC0460000002096
:100AD000080000200400002010B5084A13684021D7
:100AE0000B4313600020FFF7CFFF041E02D0012448
:100AF000200010BDFFF7D0FCFAE7C04600200240FE
:100B0000034A1168034B1B785B1813607047C0469B
:100B1000B000002000000020014B18687047C0465C
:100B2000B000002070B50400FFF7F6FF0500631C5D
:100B300002D0044B1B78E418FFF7EEFF401BA042E5
:100B4000FAD370BD0000002010B5264BDA680C23E4
:100B50001340082B42D00C2B07D0042B34D1214B4F
:100B60001B68DB063CD5204837E0910C0F230B4077
:100B70001E49C85C920D03231A40541C194BDB68B4
:100B8000DB0309D51A4A0023002100F015FE2200DC
:100B90000023FFF721FB20E0124B1B68DB0609D581
:100BA000114A0023002100F007FE22000023FFF776
:100BB00013FB12E00F4A0023002100F0FDFD22008C
:100BC0000023FFF709FB08E0064B5A68520B072386
:100BD0001340013380200002984010BD0448FCE718
:100BE0000448FAE70010024000093D000C1A000812
:100BF00000127A000024F400F0B583B0041E00D186
:100C000065E2C54BDA680C251540DE6880235B027F
:100C10001E400368DB0736D5082D2CD00C2D28D0BC
:100C2000636880225202934255D0A022D20293429E
:100C300058D0B94B1A68B9490A401A601A6880211D
:100C400049020A400192019A1A68B5490A401A609D
:100C50006368002B52D0FFF75FFF0700AE4B1B68A5
:100C60009B0310D4FFF758FFC01B6428F6D903205C
:100C70002EE2002ED4D0A84B1B689B0303D56368DB
:100C8000002B00D126E223689B076DD5E3689A0606
:100C900005D5A148026820210A4302608B43042D38
:100CA0003CD00C2D38D0002B00D1B0E09A490A6816
:100CB0000920824313430B60FFF72EFF0600964B7B
:100CC0001B685B0700D599E0FFF726FF801B022811
:100CD000F5D90320FCE1904A116880235B020B43A5
:100CE0001360B5E78C4B19688022D2020A431A6060
:100CF0001968802252020A431A60A9E7FFF70CFF25
:100D00000700854B1B689B03BDD5FFF705FFC01B84
:100D10006428F6D90320DBE1002EC4D17E4A126894
:100D2000520702D5002B00D1D6E17B4E72687D4977
:100D30000A40216909020A437260326809218A4324
:100D400013433360FFF700FFF26812090F231340CB
:100D5000754AD35CD840754B1860754B1868FFF71F
:100D600093FE002800D0B3E12368DB062DD5002DCB
:100D700060D1694B1B689B0503D5A369002B00D18B
:100D8000ACE1654A53686B490B40216A0B435360E1
:100D900053681B021B0AE16909060B435360216A71
:100DA000490B013180231B028B40D16809090F22B6
:100DB0000A405D498A5CD3405C4A13605C4B18680A
:100DC000FFF762FE002800D082E123681B077DD573
:100DD0006369002B67D0504A136D01210B431365E3
:100DE000FFF79AFE06004C4B1B6D9B076ED4FFF776
:100DF00093FE801B0228F6D9032069E146494B681F
:100E0000484A13402269120213434B60ACE7424A3E
:100E1000136801218B431360FFF77EFE06003E4BF3
:100E20001B685B07A0D5FFF777FE801B0228F6D969
:100E300003204DE1A369002B22D0374A116880239B
:100E40005B000B431360FFF767FE0600324B1B6825
:100E50009B0506D4FFF760FE801B0228F6D903200D
:100E600036E12D4A536833490B40216A0B435360E6
:100E700053681B021B0AE16909060B435360A4E790
:100E8000254A13682C490B401360FFF745FE060006
:100E9000214B1B689B0598D5FFF73EFE801B02285F
:100EA000F6D9032014E11C4A136D01218B4313650D
:100EB000FFF732FE0600184B1B6D9B0706D5FFF7A8
:100EC0002BFE801B0228F6D9032001E123685B0773
:100ED00000D48EE0104B9B6BDB001BD40E4A916B51
:100EE00080235B050B4393630126144B1B68DB05D2
:100EF00028D5A36880225200934237D0002B4DD1D1
:100F0000054B1A6D0C490A401A651A6D0C490A40C6
:100F10001A6531E00026E8E700100240FFFFFEFFFF
:100F2000FFFFFBFFFFE0FFFF201A00080800002082
:100F300004000020FF1FFFFFFFFEFFFF00700040C6
:100F4000FFFBFFFF6B4A116880235B000B431360BC
:100F5000FFF7E2FD0700674B1B68DB05C9D4FFF70D
:100F6000DBFDC01B6428F6D90320B1E0624A116D95
:100F700080235B000B431365A368002B28D0FFF789
:100F8000CBFD07005C4B1B6D9B0530D4FFF7C4FD08
:100F9000C01B5A4B9842F5D9032099E0A022D200F9
:100FA000934209D0544B1A6D55490A401A651A6D7F
:100FB00054490A401A65DFE74F4B196D013AFF3A71
:100FC0000A431A65196D802252000A431A65D3E755
:100FD000FFF7A2FD0700484B1B6D9B0507D5FFF7E8
:100FE0009BFDC01B454B9842F5D9032070E0012EB4
:100FF0001AD0636A002B00D172E00C2D4FD0022B67
:1010000018D03D4A136840490B401360FFF784FD38
:101010000400394B1B689B013FD5FFF77DFD001B8A
:101020000228F6D9032053E0334A936B37490B402B
:101030009363DEE7304A136833490B401360FFF7D0
:101040006BFD05002C4B1B689B0106D5FFF764FD6B
:10105000401B0228F6D903203AE02749CB682C4AE6
:101060001340A26AE06A0243206B02431343CB6041
:101070000A6880235B0413430B60FFF74DFD0400F7
:101080001D4B1B689B0106D4FFF746FD001B022881
:10109000F6D903201CE000201AE0002018E0012B04
:1010A00020D0154BDA6880235B021340A16A8B4283
:1010B0001AD1F0239B031340E16A8B4216D1C0235F
:1010C0001B041A40236B9A4212D1002000E0012039
:1010D00003B0F0BD0120FBE70120F9E70120F7E7AD
:1010E0000020F5E70120F3E70120F1E70120EFE719
:1010F0000120EDE70070004000100240881300005E
:10110000FFFEFFFFFFFBFFFFFFFFFFFEFFFFFFEF05
:10111000FFFF02FF70B505000C00002800D1D1E0F0
:101120006A4B1A68012313408B4219D32B689B0723
:1011300006D5674AD368F0218B43A9680B43D36077
:101140002B68DB077BD56B68022B20D0032B40D0AC
:10115000012B44D05E4A126892051DD4012099E00B
:101160005A4A136801218B4323431360FFF7D4FCD1
:101170000600564B1A6801231340A342D6D0FFF74E
:10118000CBFC801B534A9042F3D9032082E0504AA3
:101190001268920300D497E04D49CA680320824345
:1011A0001343CB60FFF7B8FC06006B68022B1CD022
:1011B000032B28D0012B34D0454BDB680C221A427C
:1011C0003DD0FFF7A9FC801B424B9842F4D9032085
:1011D00060E03F4A12689201DED401205AE03C4AA6
:1011E00012685207D8D4012054E0394BDA680C2336
:1011F0001340082B23D0FFF78FFC801B354A904209
:10120000F3D9032046E0324BDA680C2313400C2B51
:1012100015D0FFF781FC801B2E4B9842F3D9032099
:1012200038E02B4BDA680C231340042B07D0FFF770
:1012300073FC801B274B9842F3D903202AE0234BF1
:101240001A6801231340A34225D82B685B0706D5F3
:101250001F4AD36820490B40E9680B43D3602B68D1
:101260001B0707D51A49CB681C4A13402A69D200CC
:101270001343CB60FFF768FC154BDA6812090F23A4
:101280001340174AD35CD840164B1860164B1868A9
:10129000FFF7FAFB70BD0D4A136801218B4323430E
:1012A0001360FFF739FC0600084B1A68012313404E
:1012B000A342CAD0FFF730FC801B064B9842F3D9FB
:1012C0000320E7E70120E5E70120E3E700200240F3
:1012D0000010024088130000FFF8FFFFFFC7FFFF68
:1012E000201A00080800002004000020014B1868A4
:1012F0007047C0460800002010B5FFF7F7FF044B09
:10130000DA68120A07231340024AD35CD84010BDA2
:1013100000100240181A000810B5FFF7E7FF044B51
:10132000DA68D20A07231340024AD35CD84010BDC2
:1013300000100240181A000870B5040003689B06EC
:101340004ED55B4B9B6BDB0074D4594A916B802369
:101350005B050B4393630126564B1B68DB056BD57E
:10136000534B1B6862685340C02189030B4205D070
:10137000C0239B0211001940994271D04C4B196D4A
:10138000C0239B0208001840194215D01A4082421F
:1013900012D023689B060FD5454B1A6D4649114064
:1013A0001D6D8020000328431865186D434D2840AB
:1013B00018651965D20559D423689B060ED5636854
:1013C000C02292021900114091425ED038490B6D43
:1013D0006268C0208002024013430B65012E5ED07C
:1013E00023689B0706D5324AD36C0C218B43A16836
:1013F0000B43D36423685B0706D52D4AD36C304971
:101400000B40E1680B43D36423681B0706D5284AC9
:10141000D36C2C490B4021690B43D36423681B0612
:1014200043D5234AD36C28490B4061690B43D364ED
:1014300000203BE000268FE71E4A116880235B00F6
:101440000B431360FFF768FB05001A4B1B68DB05B5
:1014500086D4FFF761FB401B6428F6D9032025E002
:10146000134B1B689B0389D501201FE0FFF754FB3A
:1014700005000F4B1B6D9B059ED4FFF74DFB401BDA
:10148000124B9842F5D9032010E009490A68104828
:101490000240C0208003034013430B6096E7044AD8
:1014A000936B0C490B4093639AE7002070BDC046D4
:1014B0000010024000700040FFFFFCFFFFFFF7FF3D
:1014C000FFF3FFFFFFCFFFFFFFFFF3FF88130000D5
:1014D000FFFFCFFFFFFFFFEFF0B5002356E0866868
:1014E0005F000324BC40A643CC68BC403443846006
:1014F000446894434E683609012232409A402243A0
:10150000426053E0DE080836B600375805321A400C
:1015100092000F249440A7430C69944022003A4360
:10152000325056E0052600E00026A64034003C4339
:1015300002329200414E9451414A9768EA433E007C
:10154000AE434C68E40201D53E002E433C4CA660FD
:10155000E7683E0016404C68A40201D53E002E43C9
:10156000374CE66067683E0016404C68A40301D51E
:101570003E002E43324C6660266832404C68E403DD
:1015800001D52A0032432E4C226001330C68220020
:10159000DA4052D001229A40250015401442F4D07E
:1015A0004E6803243440013C012C98D94C68032236
:1015B0002240032A08D0C4685E000322B24094434C
:1015C0008A68B2402243C2604C6803222240022A49
:1015D00098D004685E0003221700B740BC434F68F0
:1015E0003A40B240224302604C68C0229202144248
:1015F000CBD0144C626B0126324362639A08941C70
:10160000A4000E4EA75903241C40A4000F26A64098
:10161000B743A026F605B04286D00B4EB04208D0A4
:101620000A4EB04207D00A4EB04200D17AE70626F1
:101630007BE7012679E7022677E7F0BD000001404D
:101640000004014000100240000400500008005057
:10165000001C0050002A01D0816170478162FCE7C4
:1016600070B5002811DB8308134DC0339B005C5913
:1016700003221040C000FC3216008640B4438901AA
:101680000A40824022435A5170BD0F230340083B59
:101690009B0806339B00094A944663445C68032216
:1016A0001040C000FC3215008540AC4389010A405F
:1016B000824022435A60E7E700E100E000ED00E0ED
:1016C000013880235B0498420FD2094A50600948D0
:1016D000036A1B021B0AC02109060B430362002395
:1016E000936007331360002070470120FCE7C04679
:1016F00010E000E000ED00E010B5FFF7B1FF10BD15
:1017000010B5FFF7DDFF10BD704700000D4885469E
:10171000FFF7FAFF0C480D490D4A002302E0D458A8
:10172000C4500433C4188C42F9D30A4A0A4C00232B
:1017300001E013600432A242FBD300F011F8FEF77F
:1017400085FEFEE700200020000000200C000020A5
:10175000401A00080C000020B4000020FEE7000042
:1017600070B500260C4C0D4D641BA410A64209D187
:10177000002600F01BF90A4C0A4D641BA410A64277
:1017800005D170BDB300EB5898470136EEE7B300C2
:10179000EB5898470136F2E7381A0008381A000863
:1017A0003C1A0008381A000803008218934200D13E
:1017B000704719700133F9E7F0B5CE469946030C2E
:1017C0009C46130447461B0C1D000E006146040492
:1017D000240C80B50700100C4B4365434143604324
:1017E0002C0CC01824188C46A34203D980235B021A
:1017F0009846C444494679435643230C2D042D0C86
:101800008919634424046019C918C0BCB946B0469C
:10181000F0BDC046F0B557464E464546DE46E0B5FB
:1018200004000D009246994683B08B4230D82DD0EB
:1018300049465046FEF7F0FC290006002000FEF75E
:10184000EBFC331A9846203B34D49B4653465A4609
:10185000934042461F00534693401E00AF423BD880
:10186000AF4200D179E05B46A41BBD41002B00DAFA
:1018700076E0002200230092019301235A46934010
:101880000193012342469340009329E08242CFD93D
:1018900000220023009201930C9B002B01D01C60BE
:1018A0005D600098019903B0F0BCBB46B246A94602
:1018B000A046F0BD42469B4620239B1A5246DA4082
:1018C000414613004A468A40170042461F4353468A
:1018D00093401E00AF42C3D900220023009201931F
:1018E0004346002BD8D0FB0772081A4346467B08B4
:1018F0000EE0AB4201D1A2420CD8A41A9D410120B6
:1019000024196D410021013E24184D41002E06D0BE
:10191000AB42EED9013E24196D41002EF8D100985A
:1019200001995B4600196941002B24DB2B005A46C4
:101930004446D3402A00E2401C005B461500002BC1
:101940002ADB26009E40330026004746BE40320078
:10195000801A9941009001919EE7A342BCD882E78A
:101960004246202300219B1A00220091019201226D
:10197000DA40019285E7424620239B1A2A00464618
:101980009A402300F340444613432A00E2401C00DF
:101990005B461500002BD4DA42462F002023260098
:1019A00097409B1ADE403B003343CDE7F8B5C04675
:1019B000F8BC08BC9E467047F8B5C046F8BC08BCE9
:0419C0009E46704788
:1019C40028070008560700085C0700089407000869
:1019D40068070008940700089407000894070008A3
:1019E4006E070008D80600080C0700081207000854
:1019F400880700081E0700088807000888070008F1
:101A040088070008E0060008030406080C101820E4
:101A14003000000000000000010203040000000088
:0C1A24000000000001020304060708098E
:081A3000E4FDFF7F010000004E
:041A3800E1020008BF
:041A3C00B5020008E7
:0C1A400001000000040000000000200075
:040000050800170DCB
:00000001FF
